{
  "_format": "hh-sol-artifact-1",
  "contractName": "UserDetails",
  "sourceName": "contracts/UserDetails.sol",
  "abi": [
    {
      "inputs": [],
      "name": "retrieveInformation",
      "outputs": [
        {
          "internalType": "string",
          "name": "",
          "type": "string"
        },
        {
          "internalType": "uint256",
          "name": "",
          "type": "uint256"
        },
        {
          "internalType": "address",
          "name": "",
          "type": "address"
        }
      ],
      "stateMutability": "view",
      "type": "function"
    },
    {
      "inputs": [
        {
          "internalType": "string",
          "name": "_name",
          "type": "string"
        },
        {
          "internalType": "uint256",
          "name": "_phoneNumber",
          "type": "uint256"
        }
      ],
      "name": "setInformation",
      "outputs": [],
      "stateMutability": "nonpayable",
      "type": "function"
    }
  ],
  "bytecode": "0x608060405234801561001057600080fd5b506103bd806100206000396000f3fe608060405234801561001057600080fd5b50600436106100365760003560e01c806394b16fb01461003b578063f99d8bd314610050575b600080fd5b61004e610049366004610214565b610070565b005b6100586100bf565b604051610067939291906102c9565b60405180910390f35b33600090815260208181526040909120835161008e9285019061017b565b503360008181526020819052604090206001810192909255600290910180546001600160a01b031916909117905550565b33600081815260208190526040812060018101548154606094849390929091829190849083906100ee90610336565b80601f016020809104026020016040519081016040528092919081815260200182805461011a90610336565b80156101675780601f1061013c57610100808354040283529160200191610167565b820191906000526020600020905b81548152906001019060200180831161014a57829003601f168201915b505050505092509450945094505050909192565b82805461018790610336565b90600052602060002090601f0160209004810192826101a957600085556101ef565b82601f106101c257805160ff19168380011785556101ef565b828001600101855582156101ef579182015b828111156101ef5782518255916020019190600101906101d4565b506101fb9291506101ff565b5090565b5b808211156101fb5760008155600101610200565b6000806040838503121561022757600080fd5b823567ffffffffffffffff8082111561023f57600080fd5b818501915085601f83011261025357600080fd5b81358181111561026557610265610371565b604051601f8201601f19908116603f0116810190838211818310171561028d5761028d610371565b816040528281528860208487010111156102a657600080fd5b826020860160208301376000602093820184015298969091013596505050505050565b606081526000845180606084015260005b818110156102f757602081880181015160808684010152016102da565b81811115610309576000608083860101525b506020830194909452506001600160a01b039190911660408201526080601f909201601f19160101919050565b600181811c9082168061034a57607f821691505b6020821081141561036b57634e487b7160e01b600052602260045260246000fd5b50919050565b634e487b7160e01b600052604160045260246000fdfea2646970667358221220f1cbb0ef10f07e86d0590d0e759b49f66de631932a02d3014f5729283bc9d16d64736f6c63430008070033",
  "linkReferences": {},
  "deployedLinkReferences": {}
}