{
  "_format": "hh-sol-artifact-1",
  "contractName": "UserDetails",
  "sourceName": "contracts/UserDetails.sol",
  "abi": [
    {
      "inputs": [
        {
          "internalType": "string",
          "name": "pickupLocation",
          "type": "string"
        },
        {
          "internalType": "string",
          "name": "dropoffLocation",
          "type": "string"
        }
      ],
      "name": "addLocation",
      "outputs": [],
      "stateMutability": "nonpayable",
      "type": "function"
    },
    {
      "inputs": [
        {
          "internalType": "uint256",
          "name": "index",
          "type": "uint256"
        }
      ],
      "name": "deleteLocation",
      "outputs": [],
      "stateMutability": "nonpayable",
      "type": "function"
    },
    {
      "inputs": [],
      "name": "getLocation",
      "outputs": [
        {
          "components": [
            {
              "internalType": "address",
              "name": "userAddress",
              "type": "address"
            },
            {
              "internalType": "string",
              "name": "pickupLocation",
              "type": "string"
            },
            {
              "internalType": "string",
              "name": "dropoffLocation",
              "type": "string"
            }
          ],
          "internalType": "struct UserDetails.Location[]",
          "name": "",
          "type": "tuple[]"
        }
      ],
      "stateMutability": "view",
      "type": "function"
    },
    {
      "inputs": [],
      "name": "retrieveUserInformation",
      "outputs": [
        {
          "internalType": "string",
          "name": "",
          "type": "string"
        },
        {
          "internalType": "uint256",
          "name": "",
          "type": "uint256"
        }
      ],
      "stateMutability": "view",
      "type": "function"
    },
    {
      "inputs": [
        {
          "internalType": "string",
          "name": "_name",
          "type": "string"
        },
        {
          "internalType": "uint256",
          "name": "_phoneNumber",
          "type": "uint256"
        }
      ],
      "name": "setUserInformation",
      "outputs": [],
      "stateMutability": "nonpayable",
      "type": "function"
    }
  ],
  "bytecode": "0x608060405234801561001057600080fd5b50610a9f806100206000396000f3fe608060405234801561001057600080fd5b50600436106100575760003560e01c8063815229981461005c578063ce2ce3fc14610071578063cefb85aa1461008f578063e0e6a691146100a2578063f7cfaab5146100b8575b600080fd5b61006f61006a366004610823565b6100cb565b005b610079610117565b60405161008691906108ce565b60405180910390f35b61006f61009d3660046107bf565b6102b0565b6100aa61037e565b60405161008692919061096a565b61006f6100c6366004610868565b610461565b336000818152602081815260409091206002810180546001600160a01b031916909317909255835161010092918501906105e1565b503360009081526020819052604090206001015550565b60606001805480602002602001604051908101604052809291908181526020016000905b828210156102a757600084815260209081902060408051606081019091526003850290910180546001600160a01b031682526001810180549293919291840191610184906109bb565b80601f01602080910402602001604051908101604052809291908181526020018280546101b0906109bb565b80156101fd5780601f106101d2576101008083540402835291602001916101fd565b820191906000526020600020905b8154815290600101906020018083116101e057829003601f168201915b50505050508152602001600282018054610216906109bb565b80601f0160208091040260200160405190810160405280929190818152602001828054610242906109bb565b801561028f5780601f106102645761010080835404028352916020019161028f565b820191906000526020600020905b81548152906001019060200180831161027257829003601f168201915b5050505050815250508152602001906001019061013b565b50505050905090565b60408051606081018252338152602080820185815292820184905260018054808201825560009190915282517fb10e2d527612073b26eecdfd717e6a320cf44b4afac2b0732d9fcbe2b7fa0cf6600390920291820180546001600160a01b0319166001600160a01b039092169190911781559351805193948594909361035a937fb10e2d527612073b26eecdfd717e6a320cf44b4afac2b0732d9fcbe2b7fa0cf7019201906105e1565b50604082015180516103769160028401916020909101906105e1565b505050505050565b33600081815260208190526040808220815160608181019093528154929492849290829082906103ad906109bb565b80601f01602080910402602001604051908101604052809291908181526020018280546103d9906109bb565b80156104265780601f106103fb57610100808354040283529160200191610426565b820191906000526020600020905b81548152906001019060200180831161040957829003601f168201915b505050918352505060018201546020808301919091526002909201546001600160a01b03166040909101528151910151909590945092505050565b6001818154811061047457610474610a3d565b60009182526020822060039091020180546001600160a01b03191681559061049f6001830182610665565b6104ad600283016000610665565b508190505b600180546104c091906109a4565b8110156105895760016104d3828261098c565b815481106104e3576104e3610a3d565b90600052602060002090600302016001828154811061050457610504610a3d565b60009182526020909120825460039092020180546001600160a01b0319166001600160a01b039092169190911781556001808301805491830191610547906109bb565b6105529291906106a2565b506002820181600201908054610567906109bb565b6105729291906106a2565b509050508080610581906109f6565b9150506104b2565b50600180548061059b5761059b610a27565b60008281526020812060036000199093019283020180546001600160a01b0319168155906105cc6001830182610665565b6105da600283016000610665565b5050905550565b8280546105ed906109bb565b90600052602060002090601f01602090048101928261060f5760008555610655565b82601f1061062857805160ff1916838001178555610655565b82800160010185558215610655579182015b8281111561065557825182559160200191906001019061063a565b5061066192915061071d565b5090565b508054610671906109bb565b6000825580601f10610681575050565b601f01602090049060005260206000209081019061069f919061071d565b50565b8280546106ae906109bb565b90600052602060002090601f0160209004810192826106d05760008555610655565b82601f106106e15780548555610655565b8280016001018555821561065557600052602060002091601f016020900482015b82811115610655578254825591600101919060010190610702565b5b80821115610661576000815560010161071e565b600082601f83011261074357600080fd5b813567ffffffffffffffff8082111561075e5761075e610a53565b604051601f8301601f19908116603f0116810190828211818310171561078657610786610a53565b8160405283815286602085880101111561079f57600080fd5b836020870160208301376000602085830101528094505050505092915050565b600080604083850312156107d257600080fd5b823567ffffffffffffffff808211156107ea57600080fd5b6107f686838701610732565b9350602085013591508082111561080c57600080fd5b5061081985828601610732565b9150509250929050565b6000806040838503121561083657600080fd5b823567ffffffffffffffff81111561084d57600080fd5b61085985828601610732565b95602094909401359450505050565b60006020828403121561087a57600080fd5b5035919050565b6000815180845260005b818110156108a75760208185018101518683018201520161088b565b818111156108b9576000602083870101525b50601f01601f19169290920160200192915050565b60006020808301818452808551808352604092508286019150828160051b87010184880160005b8381101561095c57888303603f19018552815180516001600160a01b031684528781015160608986018190529061092e82870182610881565b915050878201519150848103888601526109488183610881565b9689019694505050908601906001016108f5565b509098975050505050505050565b60408152600061097d6040830185610881565b90508260208301529392505050565b6000821982111561099f5761099f610a11565b500190565b6000828210156109b6576109b6610a11565b500390565b600181811c908216806109cf57607f821691505b602082108114156109f057634e487b7160e01b600052602260045260246000fd5b50919050565b6000600019821415610a0a57610a0a610a11565b5060010190565b634e487b7160e01b600052601160045260246000fd5b634e487b7160e01b600052603160045260246000fd5b634e487b7160e01b600052603260045260246000fd5b634e487b7160e01b600052604160045260246000fdfea2646970667358221220916621bf3282c26f59ce4aa4dd91ce778add6b8515b40448162b3e7d9d0cf9e264736f6c63430008070033",
  "linkReferences": {},
  "deployedLinkReferences": {}
}